:080000000C942F000C94000089
:100008000C9400000C9400000C9400000C94000068
:100018000C9400000C9400000C9400000C94000058
:100028000C9400000C9400000C9400000C94000048
:100038000C9400000C9400000C9400000C94000038
:100048000C9400000C9400000C94000080C0020086
:10005800600254000000F894EE27ECBBF1E0FBBF0F
:10006800EBBFE5BF8DE0A2E0BB27ED938A95E9F7EA
:1000780080E098E0A0E6ED930197E9F7E6E5F0E087
:1000880085919591009761F0A591B591059015908E
:10009800BF01F00105900D920197E1F7FB01F0CF48
:1000A800EFE5EDBFE8E0EEBFC0E6D2E00C945C00FF
:1000B800A0E15FD040D0E0E0EA93A0E02FD0A52DEA
:1000C800A05D43D0E9E0E51511F4552401C053942F
:1000D800A8EEB3E00E94F200EECFFFCFAA93EBB3F5
:1000E800EF70AE2FE881E07FEA2BEBBB82E08A95C8
:1000F800F1F7DA9A82E08A95F1F7DA9882E08A9540
:10010800F1F75FC0AA93A881E9DFE881E295E88367
:10011800A881E4DF81E18A95F1F753C0AA93E881C9
:10012800F0E0E05AFD4FE081A981AE0FEBDF498096
:10013800788022960895A2E046D0ACE0E3DFA1E003
:1001480042D0E0E07E2E4E2E0895AA93A881AA30D0
:1001580011F0461440F0E0E0EA937394A72DDEDF37
:10016800A881AA3071F14394D89AA881CBDFD89896
:1001780028C0AA93EAB3E06FEABBD29AD09AD19A80
:10018800DA98D898D9986880E881E058E0936202B4
:10019800E881E054E0936302A4E1B0E00E94F20039
:1001A80017D016D015D0A0E299DF81E28A95F1F731
:1001B800A8E2A8DFA4E0A6DFA5E8A4DFA6E0A2DF06
:1001C800BADF219608959EDFA3E0B0E00C94F20018
:1001D800A0E384DF81E28A95F1F70895109639F05B
:1001E800A8958AEF90E00197F1F71197C9F708955C
:00000001FF
