:080000000C948B000C94EF003E
:100008000C9400000C9400000C9400000C94000068
:100018000C9400000C9400000C9400000C94000058
:100028000C9400000C9400000C9400000C94000048
:100038000C9400000C9400000C9400000C94000038
:100048000C9400000C9400000C9400001027E803A6
:1000580064000A0001000010000110000100000007
:10006800FEFDFBF701000100010064003738392F5D
:100078003435362A3132332D43303D2B25643A2529
:10008800642E25642025643A25642E25640054696D
:100098006D65722073746F707065642E005374619F
:1000A800727400506C6179657220322057696E73E2
:1000B8002100506C6179657220312057696E732177
:1000C800000080C00100050066000400930268007B
:1000D800010097026C0001009B026E0001009D0266
:1000E80070000100A70272001000B90274000F002E
:1000F8006002960006006F02A5000F007502AB00B3
:100108000F008402BA000200C902CA000000F89475
:10011800EE27ECBBF1E0FBBFEBBFE5BF8DE0A2E053
:10012800BB27ED938A95E9F780E098E0A0E6ED9388
:100138000197E9F7ECECF0E085919591009761F073
:10014800A591B59105901590BF01F00105900D920C
:100158000197E1F7FB01F0CFEFE5EDBFE8E0EEBF77
:10016800C0E6D2E00C9476011A930A9383E08A954C
:10017800F1F710E0143060F50FEFE12FF0E0ED56E5
:10018800FD4FE081E8BB83E08A95F1F7B49906C09A
:10019800E4E0E19FF001E754FD4F5080B59906C0B7
:1001A800E4E0E19FF001E654FD4F5080B69906C0A7
:1001B800E4E0E19FF001E554FD4F5080B79906C097
:1001C800E4E0E19FF001E454FD4F50801F5FD2CF7F
:1001D8000991199108950A921A92FA926A937A9358
:1001E8008A939A93AA93BA93EA93FA93EFB7EA9306
:1001F800F894BADFEFE0E7BBE0EFE8BB552009F47D
:1002080062C0E1E3E51531F4A0919902B0919A0238
:10021800109709F002C00E94BA04E2E3E51521F440
:100228000E94C104109709F002C00E94C604E1E3CD
:10023800E51521F40E94C104119709F002C00E943B
:10024800C604E2E3E51521F40E94C104119709F000
:1002580002C00E94BA04E3E4E515A1F5E091990211
:10026800F0919A02309731F5E1E0F0E0E0939B02DB
:10027800F0939C02E0939D02F0939E020E94CD04AD
:10028800E093A102E093A202E0E0E093A302E093EE
:10029800A402E093A502E093A602E4E6F0E0E0936E
:1002A800A702F093A802E1E0F0E0E0939902F0934E
:1002B8009A0208C00E94D3040E94D904A0E6B2E0C2
:1002C8000E94BB0255247894E991EFBFF991E99116
:1002D800B991A9919991899179916991F990199018
:1002E80009901895E8E4E3BFE3B7E560E3BFA0E150
:1002F8004FD11CD17894EBB7E064EBBFE5B7E2606F
:10030800E5BFEFE0E7BBE0EFE8BBAFE6B2E02FD137
:100318000E94C104119709F0DAC0A1E0B0E00E9480
:100328005E05A0919702B0919802119709F049C013
:10033800E091A302F091A4023197E093A302F09315
:10034800A402A091A302B091A4020E9482057CF0AD
:10035800E0919F02F091A0023197E0939F02F09301
:10036800A002E3E6F0E0E093A302F093A402A091D8
:10037800A002AA237AF4E0919B02F0919C023197A3
:10038800E0939B02F0939C02EBE3F0E0E0939F0282
:10039800F093A002A0919C02AA239AF4E0E0E093D3
:1003A8009B02E0939C020E94CD04E093A302E09399
:1003B800A4020E94D904A5E7B2E0D9D00E94D304D0
:1003C80087C0A0919702B0919802129709F04BC08C
:1003D800E091A502F091A6023197E093A502F0936F
:1003E800A602A091A502B091A6020E9482057CF007
:1003F800E091A102F091A2023197E093A102F0935B
:10040800A202E3E6F0E0E093A502F093A602A09131
:10041800A202AA237AF4E0919D02F0919E023197FC
:10042800E0939D02F0939E02EBE3F0E0E093A102DB
:10043800F093A202A0919E02AA23AAF4E0E0E0931E
:100448009D02E0939E02E093A102E093A202E09352
:10045800A502E093A6020E94D904A4E8B2E087D0DE
:100468000E94D30435C0E9EAF2E0FA93EA93E4E89B
:10047800F0E0FA93EA93E0919B02F0919C020E94CB
:100488002005E0919F02F091A0020E942005E091D2
:10049800A302F091A4020E942005E0919D02F09130
:1004A8009E020E942005E091A102F091A2020E9402
:1004B8002005E091A502F091A6020E94200588E19E
:1004C8000E946D046C9632D0A9EAB2E050D020CFD9
:1004D800FFCFAA93EBB3EF70AE2FE881E07FEA2B52
:1004E800EBBB82E08A95F1F7DA9A82E08A95F1F718
:1004F800DA9882E08A95F1F776C0AA93A881E9DFB5
:10050800E881E295E883A881E4DF81E18A95F1F743
:100518006AC0AA93E881F0E0E753FD4FE081A98122
:10052800AE0FEBDF4980788022960895A2E00E9402
:100538002505ACE0E2DFA1E00E942505E0E07E2E83
:100548004E2E0895AA93A881AA3011F0461448F0B7
:10055800E0E0EA937394A72DDCDFA881AA3009F4C0
:1005680042C04394D89AA881C8DFD8983CC0BA93AF
:10057800AA931A93A981BA81ED91A983BA831E2FF0
:10058800E03019F0A12FDEDFF5CF1881239608950A
:10059800AA93EAB3E06FEABBD29AD09AD19ADA98D2
:1005A800D898D9986880E881E058E093CB02E88130
:1005B800E054E093CC02A4E1B0E00E945E050E9402
:1005C8002B050E942B050E942B05A0E282DF81E209
:1005D8008A95F1F7A8E291DFA4E08FDFA5E88DDF27
:1005E800A6E08BDFA3DF21960895BA93AA931A9306
:1005F8000A93AA81BB8112960E947505309759F11A
:10060800AA81BB8114960E9475058F01309761F00D
:100618000230E0E01E0798F0F80131978F01AA81B7
:10062800BB811496ED93FC93AA81BB811296ED9140
:10063800FD913196FE93EE933197AC81A083AA8108
:10064800BB810E947505FF232AF0ED91FD9131963B
:10065800FE93EE9306C0AA81BB81EFEFFFEFED9307
:10066800FC931981088125960895BA93AA93269731
:100678000E94860510E0AC85BD85E0E0F0E0ED93D2
:10068800FC93EA89FB893196EA8BFB8B3197E491DD
:100698002E2FE03009F415C1E12FE03039F425326E
:1006A80011F411E002C00E9432050AC1E130A9F438
:1006B800253219F40E94320502C112E040E000E040
:1006C8002D3211F401E0FCC02B3211F44BE2F8C0DA
:1006D800203211F440E2F4C002C0E23039F450E0B4
:1006E80013E0203311F40068EBC003C0E33009F0D5
:1006F800E7C0203310F02A3308F007C0AAE05A9F59
:10070800502DE22FE0535E0FDBC0E22FE33649F4B1
:100718000E943905E889F989A481AA930E943F05B6
:10072800CEC0E33741F40E9439050E9445050E9476
:10073800A1041E2F0AC0E03761F40E9439050E9407
:1007480045050E94AD041E2F086002600F7730E057
:1007580034C0E43611F0E93611F4046002C0E5371C
:1007680031F4E4E5F0E0EE83FF8315E00CC0E835F2
:1007780011F4086003C0E83709F0A1C0EEE5F0E025
:10078800EE83FF8314E002FF14C00E9439050E9423
:100798004F05AB85AA233AF4EA85FB850E946C05D0
:1007A800EA87FB874DE2403011F01F5F01C00B7FE5
:1007B80004C00E9439050E944F0500FD11C015179D
:1007C80078F407FF08C002FF04C00B7F242F1150E4
:1007D80001C020E301C020E20E9432055150EFCF52
:1007E800312F01FF17C03030A1F003FF06C0EE81A2
:1007F800FF812591EE83FF8305C0AE81BF812D91D6
:10080800AE83BF830E943205503009F051503150F9
:10081800EACF4BC020E3EE81FF810E947905E8878B
:10082800F987EE81FF813296EE83FF83E885F985AB
:10083800AA85BB85AE17BF0750F02F5FA885B9857D
:10084800EA85FB85EA1BFB0BEA87FB87EFCF2A3398
:1008580028F003FF02C0295F01C0295D04FD1AC00A
:10086800213320F4A885B985119709F409C05317D5
:1008780010F000FF01C013C020E207FF0BC020E307
:10088800006102FF07C00B7F4A930E943F0550306A
:1008980009F051500E943205503009F05150315042
:1008A800A885B985129708F0B5CF00FF08C0503069
:1008B80031F05150E0E2EA930E943F05F8CF10E092
:1008C800E0CEAC85BD850E9475050E948D056496B5
:1008D8000895FF92F82E26970E9488050E945705D2
:1008E800309719F4EFEFFFEF23C0DE0116960E9450
:1008F80068058D010E945705EE83FF83E0E0E887D5
:10090800E987DE011A960E9468050E947505FA9328
:10091800EA931A930A93E9EFF2E0FA93EA93DE0175
:100928001A96A3DE9F01AE81BF81E0E0EC93F90146
:100938000E948F052A96FF900895BA93AA93A991C9
:10094800B991EE27FF276D91662311F03196FBCF01
:100958000895BA93AA93AA27BB27E991F99105901C
:10096800002011F01196FBCFFD010895E1E0F0E0C1
:10097800E0939702F09398020895A0919902B0919C
:100988009A020895E2E0F0E0E0939702F09398026B
:100998000895E0E0E0939F02E093A0020895E0E06C
:1009A800E0939902E0939A020895E9EAF2E0FA9353
:1009B800EA93E4E8F0E0FA93EA93E0919B02F0917D
:1009C8009C020E9470050E947D05E0919F02F091B3
:1009D800A0020E9470050E947D05E091A302F0919B
:1009E800A4020E9470050E947D05E0919D02F0918D
:1009F8009E020E9470050E947D05E091A102F0917F
:100A0800A2020E9470050E947D05E091A502F09166
:100A1800A6020E9470050E947D0588E10E946D046F
:100A28006C960E949A02A9EAB2E00E94BB02E0E03A
:100A3800EA93A1E00C948D020E9470050E947D0546
:100A480008950E948102A3E0B0E00C945E05A0E343
:100A58000E946D0281E28A95F1F708952A93AD8587
:100A6800BE85EF85F88909950895E889F98934974D
:100A7800E88BF98B0895AD85BE85EF85F8890995D2
:100A88000895A889B98914960E947505EE83FF8395
:100A9800AE81BF810895A889B98914960E94750509
:100AA800EA87FB870895DE011C960E9468050E946C
:100AB80075050895109639F0A8958AEF90E001978A
:100AC800F1F71197C9F708950024AF0DB01D0895E7
:100AD800F195E195F04008956F2F660F660B762F1C
:100AE8000895ED91FC91119708950590F491E02DEA
:100AF80008957A936A93FA93EA93089500240A165C
:100B08000B0608955A934A933A932A931A930A9391
:100B180008955D814C813B812A811981088108955E
:00000001FF
