:060000000C9465000C9455
:1000060000000C9400000C9400000C9400000C946A
:1000160000000C9400000C9400000C9400000C945A
:1000260000000C9400000C9400000C9400000C944A
:1000360000000C9400000C9400000C9400000C943A
:1000460000000C9400000C9400000C940000102793
:10005600E80364000A00010000100001100001001E
:100066000000000000000000FEFDFBF73132332FD8
:100076003435362A3738392D43303D2B5374617267
:1000860074002564004E616E000080C001002D4E94
:10009600414E00494E460000080004006600040078
:1000A6006A026E001000880272000600600282007A
:1000B600040066028B0002009802900001009E0276
:1000C60092000000F894EE27ECBBF1E0FBBFEBBF1B
:1000D600E5BF8DE0A2E0BB27ED938A95E9F780E0C6
:1000E60098E0A0E6ED930197E9F7EEE9F0E0859157
:1000F6009591009761F0A591B59105901590BF0176
:10010600F00105900D920197E1F7FB01F0CFEFE5C5
:10011600EDBFE8E0EEBFC0E6D2E00C94EA00BA9389
:10012600AA930E94D70421E030E001E010E0EC81C0
:10013600FD81E017F1074CF0EE81FF81D9010E94A5
:10014600B5049F010F5F1F4FF2CFF9010E94DE0435
:10015600289608950E94D704EFE0E7BBEFEFE8BBCF
:1001660010E0143078F50FEFE12FF0E0E659FD4F7F
:10017600E081E8BB83E08A95F1F7B49B00E0B59B8C
:1001860001E0B69B02E0B79B03E00F3FC9F0E4E055
:10019600E19FF001DF01E02FF0E0EA0FFB1FE857D7
:1001A600FD4F3081B49BFECFB59BFECFB69BFECFF5
:1001B600B79BFECFA2E3B0E00E949104E32F03C0F9
:1001C6001F5FCFCFCDCF0E94DE0424960895A0E115
:1001D60038D1FFD0A0E6B2E023D1A8EEB3E00E946A
:1001E6009104F7D0B7DF5E2EE42DF0E0309759F595
:1001F600E3E4E51519F40E94130424C0A52DEBE2EF
:100206000E94A8040E2EEDE20E941D04EFE20E9459
:100216001D04EAE20E94A804E02959F0752CD9D001
:100226000E9422040E942604A0E2E0D0E1E04E2EC5
:1002360009C0F5010E942C045D01CBD00E94360452
:100246000E94220495C0E130A0E0FA0709F090C0B0
:10025600E3E4E51521F40E941304442489C0A52D86
:10026600E1E30E94A8040E2EE2E30E941D04E3E3EC
:100276000E941D04E4E30E941D04E5E30E941D04A0
:10028600E6E30E941D04E7E30E941D04E8E30E94E2
:100296001D04E9E30E941D04E0E30E94A804E0298E
:1002A600D9F0F4010E942C044D01E0E0EA93A0E0AD
:1002B60081D00E942204A0E299D0A72D97D0A0E277
:1002C60095D0E3E7F2E00E944804F4010E944F044F
:1002D600A3E7B2E0A5D04CC0EDE3E51509F048C0B0
:1002E6000E942604E0E0EA93A1E064D0EBE2E71581
:1002F60021F4F401EA0DFB1D2AC0EDE2E71521F415
:10030600F501E819F90923C0EFE2E715C9F40A2C4B
:100316000B2831F4E1E0F0E06F01A6E6B2E00EC092
:10032600BA92AA92D401FBDE6F01E8E7F2E00E94DE
:100336004804F6010E944F04A8E7B2E071D012C04B
:10034600EAE2E71579F4F401D5010E94B5046F01DC
:10035600E8E7F2E00E944804F6010E944F04A8E78D
:10036600B2E05ED044248824992456010E943604C3
:1003760039CFFFCFAA93EBB3EF70AE2FE881E07FC2
:10038600EA2BEBBB82E08A95F1F7DA9A82E08A954E
:10039600F1F7DA9882E08A95F1F77FC0AA93A881EF
:1003A600E9DFE881E295E883A881E4DF81E18A95C7
:1003B600F1F773C0AA93E881F0E0E856FD4FE081BB
:1003C600A981AE0FEBDF6980E881E0939C0222965B
:1003D6000895A2E00E945804ACE0E0DFA1E00E948C
:1003E6005804E0E0E0939C026E2E0895AA93A8813B
:1003F600AA3021F0E0919D026E1660F0E0E0EA93EB
:10040600A0919C02AF5FA0939C02D4DFA881AA3082
:1004160009F443C06394D89AA881C0DFD8983DC038
:10042600BA93AA931A93A981BA81ED91A983BA8343
:100436001E2FE03019F0A12FD9DFF5CF18812396B2
:100446000895AA93EAB3E06FEABBD29AD09AD19AFA
:10045600DA98D898D998E881E0939D02E058E0931D
:100466009A02E881E054E0939B02A4E1B0E00E9486
:1004760091040E945E040E945E040E945E04A0E253
:1004860079DF81E28A95F1F7A8E288DFA4E086DFCA
:10049600A5E884DFA6E082DF9CDF21960895BA9363
:1004A600AA931A930A93AA81BB8112960E94C80442
:1004B600309759F1AA81BB8114960E94C8048F0116
:1004C600309761F00230E0E01E0798F0F8013197AE
:1004D6008F01AA81BB811496ED93FC93AA81BB81FF
:1004E6001296ED91FD913196FE93EE933197AC8184
:1004F600A083AA81BB810E94C804FF232AF0ED9144
:10050600FD913196FE93EE9306C0AA81BB81EFEF73
:10051600FFEFED93FC931981088125960895BA9310
:10052600AA9326970E94D50410E0AC85BD85E0E02D
:10053600F0E0ED93FC93EA89FB893196EA8BFB8B1D
:100546003197E4912E2FE03009F415C1E12FE03008
:1005560039F4253211F411E002C00E9465040AC183
:10056600E130A9F4253219F40E94650402C112E0B3
:1005760040E000E02D3211F401E0FCC02B3211F412
:100586004BE2F8C0203211F440E2F4C002C0E2307F
:1005960039F450E013E0203311F40068EBC003C0D7
:1005A600E33009F0E7C0203310F02A3308F007C023
:1005B600AAE05A9F502DE22FE0535E0FDBC0E22FD8
:1005C600E33649F40E946C04E889F989A481AA9368
:1005D6000E947204CEC0E33741F40E946C040E946C
:1005E60078040E94FA031E2F0AC0E03761F40E94C5
:1005F6006C040E9478040E9406041E2F08600260A4
:100606000F7730E034C0E43611F0E93611F40460B7
:1006160002C0E53731F4E4E5F0E0EE83FF8315E050
:100626000CC0E83511F4086003C0E83709F0A1C032
:10063600EEE5F0E0EE83FF8314E002FF14C00E94B3
:100646006C040E948204AB85AA233AF4EA85FB85F2
:100656000E949F04EA87FB874DE2403011F01F5F3E
:1006660001C00B7F04C00E946C040E94820400FD3E
:1006760011C0151778F407FF08C002FF04C00B7FEE
:10068600242F115001C020E301C020E20E9465041E
:100696005150EFCF312F01FF17C03030A1F003FFCB
:1006A60006C0EE81FF812591EE83FF8305C0AE81F2
:1006B600BF812D91AE83BF830E946504503009F03F
:1006C60051503150EACF4BC020E3EE81FF810E94AA
:1006D600CC04E887F987EE81FF813296EE83FF83AB
:1006E600E885F985AA85BB85AE17BF0750F02F5F51
:1006F600A885B985EA85FB85EA1BFB0BEA87FB879C
:10070600EFCF2A3328F003FF02C0295F01C0295D1D
:1007160004FD1AC0213320F4A885B985119709F480
:1007260009C0531710F000FF01C013C020E207FFF5
:100736000BC020E3006102FF07C00B7F4A930E94B3
:100746007204503009F051500E946504503009F08F
:1007560051503150A885B985129708F0B5CF00FFE2
:1007660008C0503031F05150E0E2EA930E94720422
:10077600F8CF10E0E0CEAC85BD850E94C8040E948B
:10078600DC0464960895FF92F82E26970E94D704FB
:100796000E948A04309719F4EFEFFFEF23C0DE01C1
:1007A60016960E949B048D010E948A04EE83FF83A5
:1007B600E0E0E887E987DE011A960E949B040E9422
:1007C600C804FA93EA931A930A93E2E5F2E0FA93DD
:1007D600EA93DE011A96A3DE9F01AE81BF81E0E0B7
:1007E600EC93F9010E94DE042A96FF900895BA93CD
:1007F600AA93A991B991EE27FF276D91662311F06F
:100806003196FBCF0895BA93AA93AA27BB27E991FD
:10081600F9910590002011F01196FBCFFD01089586
:1008260088249924AA24BB2477240E94EC01A0E3FF
:100836000C94F9010E94A8040E2AA52D0895AEE68F
:10084600B2E00C941302A0E20E94F901A52D0C94CB
:10085600F901AAE0B0E00E94B504DF01EE27A50D7C
:10086600BE1FD0970895EEE6F2E0FA93EA93E8E821
:10087600F0E0FA93EA93F5010E94A3040E94D004E3
:1008860084E00E94C60328960895FA93EA93E8E85E
:10089600F0E0FA93EA9308950E94A3040E94D0041C
:1008A60084E00E94C603289608950E94D101A3E021
:1008B600B0E00C949104A0E30E94BD0181E28A9508
:1008C600F1F708952A93AD85BE85EF85F8890995D8
:1008D6000895E889F9893497E88BF98B0895AD85F1
:1008E600BE85EF85F88909950895A889B989149672
:1008F6000E94C804EE83FF83AE81BF810895A88954
:10090600B98914960E94C804EA87FB870895DE0118
:100916001C960E949B040E94C8040895109639F004
:10092600A8958AEF90E00197F1F71197C9F7089516
:100936000024AF0DB01D0895F195E195F04008959E
:100946006F2F660F660B762F0895EA17E1E009F020
:10095600EE270895FA9FF02DEB9FF00DEA9FE02D0C
:10096600F10D089504D0F6DF0EF4E6DF0895E8945D
:10097600F7FF02C0E1DF6894B7FF06C0A095B09507
:10098600119600F8039400FA0895ED91FC911197E1
:1009960008950590F491E02D08957A936A93FA9359
:1009A600EA9308955A934A933A932A931A930A9389
:1009B60008955D814C813B812A81198108810895C2
:00000001FF
