:100000000C9445000C94AB000C9400000C94000080
:100010000C9400000C9400000C9400000C94000060
:100020000C9400000C9400000C9400000C94000050
:100030000C9400000C9400000C9400000C94000040
:100040000C9400000C9400000C9400000C94000030
:100050000C940000FEFDFBF73738392F3435362A73
:100060003132332D43303D2B53746172740080C0A4
:1000700004006602540010006A0258000600600284
:10008000680002007A026E000000F894EE27ECBBD4
:10009000F1E0FBBFEBBFE5BF8DE0A2E0BB27ED9336
:1000A0008A95E9F780E098E0A0E6ED930197E9F7FB
:1000B000E0E7F0E085919591009761F0A591B59109
:1000C00005901590BF01F00105900D920197E1F7A1
:1000D000FB01F0CFEFE5EDBFE8E0EEBFC0E6D2E018
:1000E0000C94D1000E947E0110E0143078F50FEFDF
:1000F000E12FF0E0EA59FD4FE081E8BB83E08A950B
:10010000F1F7B49B00E0B59B01E0B69B02E0B79B22
:1001100003E00F3FC9F0E4E0E19FF001DF01E02FD1
:10012000F0E0EA0FFB1FE659FD4F3081B49BFECF94
:10013000B59BFECFB69BFECFB79BFECFA2E3B0E050
:100140000E947401E32F03C01F5FCFCFCDCF0E9469
:100150008301249608950A921A92FA926A937A93E6
:100160008A939A93AA93BA93EA93FA93EFB7EA938E
:10017000F894B8DF5E2EE3E4E51511F450D002C028
:10018000A52D57D07894E991EFBFF991E991B991F4
:10019000A9919991899179916991F9901990099012
:1001A0001895A0E16CD03BD0A0E6B2E057D0A8EE05
:1001B000B3E00E94740133D0EFE0E7BBE0EFE8BBAF
:1001C000FBCFFFCFAA93EBB3EF70AE2FE881E07FB8
:1001D000EA2BEBBB82E08A95F1F7DA9A82E08A9506
:1001E000F1F7DA9882E08A95F1F771C0AA93A881B5
:1001F000E9DFE881E295E883A881E4DF81E18A957F
:10020000F1F765C0AA93E881F0E0E658FD4FE08180
:10021000A981AE0FEBDF4980788022960895A2E095
:1002200058D0ACE0E3DFA1E054D0E0E07E2E4E2ECB
:100230000895AA93A881AA3011F0461448F0E0E08E
:10024000EA937394A72DDEDFA881AA3009F43FC09A
:100250004394D89AA881CADFD89839C0BA93AA9390
:100260001A93A981BA81ED91A983BA831E2FE03038
:1002700019F0A12FDEDFF5CF188123960895AA93F8
:10028000EAB3E06FEABBD29AD09AD19ADA98D898BA
:10029000D9986880E881E058E0937C02E881E054D6
:1002A000E0937D02A4E1B0E00E94740117D016D063
:1002B00015D0A0E287DF81E28A95F1F7A8E296DF08
:1002C000A4E094DFA5E892DFA6E090DFA8DF219606
:1002D00008958CDFA3E0B0E00C947401A0E372DF1A
:1002E00081E28A95F1F70895109639F0A8958AEF82
:1002F00090E00197F1F71197C9F708953A932A937F
:100300001A930A9308953B812A81198108810895DF
:00000001FF
