:100000000C9447000C9400000C9400000C94000029
:100010000C9400000C9400000C9400000C94000060
:100020000C9400000C9400000C9400000C94000050
:100030000C9400000C9400000C9400000C94000040
:100040000C9400000C9400000C9400000C94000030
:100050000C9400001027E80364000A00010000105F
:100060000001100001004E617A616E696E527A20C3
:100070004F6D696454612053616D616E427A000076
:100080002563000080C00200800284000000F89414
:10009000EE27ECBBF1E0FBBFEBBFE5BF8DE0A2E0DC
:1000A000BB27ED938A95E9F780E098E0A0E6ED9311
:1000B0000197E9F7E6E8F0E085919591009761F006
:1000C000A591B59105901590BF01F00105900D9295
:1000D0000197E1F7FB01F0CFEFE5EDBFE8E0EEBF00
:1000E000C0E6D2E00C947400699789E1A0E0B0E02A
:1000F000E6E6F0E00E94790300E010E020E030E066
:10010000A0E19AD067D066D000E010E00230E0E0D5
:100110001E078CF520E030E02031E0E03E0744F59A
:10012000E0E6F2E0FA93EA93E0E8F0E0FA93EA938B
:10013000F8010E945503E20FF31FDE011496AE0F83
:10014000BF1FEC91FF27662777270E94660384E094
:100150000E94BD0228962A93A02F2FD0A0E6B2E0DD
:100160005AD0A6E9B0E00E9443032F5F3F4FD4CF9F
:100170000F5F1F4FCBCFC7CFFFCFAA93EBB3EF706B
:10018000AE2FE881E07FEA2BEBBB82E08A95F1F7A6
:10019000DA9A82E08A95F1F7DA9882E08A95F1F7A7
:1001A00076C0AA93A881E9DFE881E295E883A88177
:1001B000E4DF81E18A95F1F76AC0AA93E881F0E073
:1001C000E058FD4FE081A981AE0FEBDF59804880F8
:1001D00022960895A2E00E940A03ACE0E2DFA1E0CB
:1001E0000E940A03E0E04E2E5E2E0895AA93A88195
:1001F000AA3011F0571448F0E0E0EA934394A42D9C
:10020000DCDFA881AA3009F442C05394D89AA881AF
:10021000C8DFD8983CC0BA93AA931A93A981BA812F
:10022000ED91A983BA831E2FE03019F0A12FDEDFF4
:10023000F5CF188123960895AA93EAB3E06FEABB3D
:10024000D29AD09AD19ADA98D898D9987880E881B9
:10025000E058E0938202E881E054E0938302A4E155
:10026000B0E00E9443030E9410030E9410030E940A
:100270001003A0E282DF81E28A95F1F7A8E291DF24
:10028000A4E08FDFA5E88DDFA6E08BDFA3DF21965A
:100290000895BA93AA931A930A93AA81BB811296DE
:1002A0000E945E03309759F1AA81BB8114960E9487
:1002B0005E038F01309761F00230E0E01E0798F096
:1002C000F80131978F01AA81BB811496ED93FC93BD
:1002D000AA81BB811296ED91FD913196FE93EE932A
:1002E0003197AC81A083AA81BB810E945E03FF236A
:1002F0002AF0ED91FD913196FE93EE9306C0AA810E
:10030000BB81EFEFFFEFED93FC93198108812596F8
:100310000895BA93AA9326970E946B0310E0AC85C8
:10032000BD85E0E0F0E0ED93FC93EA89FB8931962E
:10033000EA8BFB8B3197E4912E2FE03009F415C145
:10034000E12FE03039F4253211F411E002C00E94AF
:1003500017030AC1E130A9F4253219F40E941703EA
:1003600002C112E040E000E02D3211F401E0FCC0D7
:100370002B3211F44BE2F8C0203211F440E2F4C009
:1003800002C0E23039F450E013E0203311F4006889
:10039000EBC003C0E33009F0E7C0203310F02A338C
:1003A00008F007C0AAE05A9F502DE22FE0535E0FDD
:1003B000DBC0E22FE33649F40E941E03E889F98985
:1003C000A481AA930E942403CEC0E33741F40E9483
:1003D0001E030E942A030E94F1021E2F0AC0E0376A
:1003E00061F40E941E030E942A030E94FD021E2F38
:1003F000086002600F7730E034C0E43611F0E9366F
:1004000011F4046002C0E53731F4E4E5F0E0EE8376
:10041000FF8315E00CC0E83511F4086003C0E8372D
:1004200009F0A1C0EEE5F0E0EE83FF8314E002FFE7
:1004300014C00E941E030E943403AB85AA233AF421
:10044000EA85FB850E945103EA87FB874DE2403035
:1004500011F01F5F01C00B7F04C00E941E030E94A9
:10046000340300FD11C0151778F407FF08C002FF20
:1004700004C00B7F242F115001C020E301C020E2F3
:100480000E9417035150EFCF312F01FF17C03030BA
:10049000A1F003FF06C0EE81FF812591EE83FF836B
:1004A00005C0AE81BF812D91AE83BF830E9417032B
:1004B000503009F051503150EACF4BC020E3EE816B
:1004C000FF810E946203E887F987EE81FF813296FF
:1004D000EE83FF83E885F985AA85BB85AE17BF0744
:1004E00050F02F5FA885B985EA85FB85EA1BFB0BD9
:1004F000EA87FB87EFCF2A3328F003FF02C0295F8A
:1005000001C0295D04FD1AC0213320F4A885B985F6
:10051000119709F409C0531710F000FF01C013C070
:1005200020E207FF0BC020E3006102FF07C00B7F42
:100530004A930E942403503009F051500E9417033F
:10054000503009F051503150A885B985129708F004
:10055000B5CF00FF08C0503031F05150E0E2EA93CF
:100560000E942403F8CF10E0E0CEAC85BD850E9448
:100570005E030E94720364960895FF92F82E2697F8
:100580000E946D030E943C03309719F4EFEFFFEFD8
:1005900023C0DE0116960E944D038D010E943C038C
:1005A000EE83FF83E0E0E887E987DE011A960E9488
:1005B0004D030E945E03FA93EA931A930A93E9E4C7
:1005C000F1E0FA93EA93DE011A96A3DE9F01AE8171
:1005D000BF81E0E0EC93F9010E9474032A96FF903A
:1005E0000895BA93AA93A991B991EE27FF276D9127
:1005F000662311F03196FBCF0895BA93AA93AA27E8
:10060000BB27E991F9910590002011F01196FBCFDD
:10061000FD0108950E94D100A3E0B0E00C944303D3
:10062000A0E30E94BD0081E28A95F1F708952A9324
:10063000AD85BE85EF85F88909950895E889F98922
:100640003497E88BF98B0895AD85BE85EF85F889E1
:1006500009950895A889B98914960E945E03EE83CE
:10066000FF83AE81BF810895A889B98914960E943D
:100670005E03EA87FB870895DE011C960E944D0306
:100680000E945E030895109639F0A8958AEF90E0D5
:100690000197F1F71197C9F708950024AF0DB01D28
:1006A0000895F195E195F0400895EE0FFF1FEE0FCC
:1006B000FF1FEE0FFF1FEE0FFF1F0895ED91FC913E
:1006C000119708950590F491E02D08957A936A9317
:1006D000FA93EA9308955A934A933A932A931A9372
:1006E0000A9308955D814C813B812A81198108819B
:1006F0000895AC0FBD1F05900D928A95E1F70895FE
:00000001FF
