:060000000C9451000C9469
:1000060000000C9400000C9400000C9400000C946A
:1000160000000C9400000C9400000C9400000C945A
:1000260000000C9400000C9400000C9400000C944A
:1000360000000C9400000C9400000C9400000C943A
:1000460000000C9400000C9400000C940000102793
:10005600E80364000A00010000100001100001001E
:10006600000053616D616E427A204E617A616E695D
:100076006E527A204F6D6964546120202020202022
:1000860020002563000080C00200040066001F00F7
:10009600800268000200A0028C000000F894EE279F
:1000A600ECBBF1E0FBBFEBBFE5BF8DE0A2E0BB27F9
:1000B600ED938A95E9F780E098E0A0E6ED93019745
:1000C600E9F7EEE8F0E085919591009761F0A5914A
:1000D600B59105901590BF01F00105900D9201971D
:1000E600E1F7FB01F0CFEFE5EDBFE8E0EEBFC0E6DC
:1000F600D2E00C94CF00BA93AA931A93E981FA81BD
:10010600E78D1E2FEFE1F0E02F0100240414050413
:100116008CF4F201A981BA81EA0FFB1F0F01F201EB
:100126003197AE0FBF1FEC91D001EC93F2013197DE
:100136002F01EBCFA981BA811C939CC0BA93AA93D5
:100146006AD044245524E0E2F0E04E165F063CF403
:100156000E942E032496F20131962F01F4CF59C046
:10016600BA93AA9344245524E8E1F0E04E165F06BC
:1001760094F40E942E03E7E1F0E0E415F50529F07A
:10018600A6E9B0E00E94960301C045D02496F2018C
:1001960031962F01E9CF3DC0A0E16FD03CD0A0E859
:1001A600B2E0DEDFA0E8B2E0C9DFA0E8B2E0A3DF9C
:1001B600A0E9B1E00E949603F5CFFFCFAA93EBB377
:1001C600EF70AE2FE881E07FEA2BEBBB82E08A95E9
:1001D600F1F7DA9A82E08A95F1F7DA9882E08A9561
:1001E600F1F776C0AA93A881E9DFE881E295E88372
:1001F600A881E4DF81E18A95F1F76AC0AA93E881D4
:10020600F0E0E056FD4FE081A981AE0FEBDF79808B
:10021600688022960895A2E00E945D03ACE0E2DFCA
:10022600A1E00E945D03E0E06E2E7E2E0895AA9363
:10023600A881AA3011F0791448F0E0E0EA936394BB
:10024600A62DDCDFA881AA3009F442C07394D89A9F
:10025600A881C8DFD8983CC0BA93AA931A93A981FB
:10026600BA81ED91A983BA831E2FE03019F0A12F30
:10027600DEDFF5CF188123960895AA93EAB3E06FDF
:10028600EABBD29AD09AD19ADA98D898D998988017
:10029600E881E058E093A202E881E054E093A302EB
:1002A600A4E1B0E00E9496030E9463030E946303E8
:1002B6000E946303A0E282DF81E28A95F1F7A8E259
:1002C60091DFA4E08FDFA5E88DDFA6E08BDFA3DF5B
:1002D60021960895BA93AA931A930A93AA81BB8189
:1002E60012960E94D803309759F1AA81BB811496C1
:1002F6000E94D8038F01309761F00230E0E01E07BC
:1003060098F0F80131978F01AA81BB811496ED937D
:10031600FC93AA81BB811296ED91FD913196FE93D5
:10032600EE933197AC81A083AA81BB810E94D8034A
:10033600FF232AF0ED91FD913196FE93EE9306C0D0
:10034600AA81BB81EFEFFFEFED93FC931981088142
:1003560025960895BA93AA9326970E94E50310E07E
:10036600AC85BD85E0E0F0E0ED93FC93EA89FB897E
:100376003196EA8BFB8B3197E4912E2FE03009F40E
:1003860015C1E12FE03039F4253211F411E002C035
:100396000E946A030AC1E130A9F4253219F40E94C9
:1003A6006A0302C112E040E000E02D3211F401E0E0
:1003B600FCC02B3211F44BE2F8C0203211F440E2BB
:1003C600F4C002C0E23039F450E013E0203311F4F7
:1003D6000068EBC003C0E33009F0E7C0203310F03B
:1003E6002A3308F007C0AAE05A9F502DE22FE053A7
:1003F6005E0FDBC0E22FE33649F40E947103E88901
:10040600F989A481AA930E947703CEC0E33741F409
:100416000E9471030E947D030E9415031E2F0AC0CD
:10042600E03761F40E9471030E947D030E9421035C
:100436001E2F086002600F7730E034C0E43611F0FA
:10044600E93611F4046002C0E53731F4E4E5F0E082
:10045600EE83FF8315E00CC0E83511F4086003C095
:10046600E83709F0A1C0EEE5F0E0EE83FF8314E083
:1004760002FF14C00E9471030E948703AB85AA2362
:100486003AF4EA85FB850E94A403EA87FB874DE2DE
:10049600403011F01F5F01C00B7F04C00E94710342
:1004A6000E94870300FD11C0151778F407FF08C0E6
:1004B60002FF04C00B7F242F115001C020E301C0AE
:1004C60020E20E946A035150EFCF312F01FF17C07F
:1004D6003030A1F003FF06C0EE81FF812591EE8347
:1004E600FF8305C0AE81BF812D91AE83BF830E947D
:1004F6006A03503009F051503150EACF4BC020E327
:10050600EE81FF810E94DC03E887F987EE81FF8197
:100516003296EE83FF83E885F985AA85BB85AE17FB
:10052600BF0750F02F5FA885B985EA85FB85EA1BD2
:10053600FB0BEA87FB87EFCF2A3328F003FF02C0C5
:10054600295F01C0295D04FD1AC0213320F4A88566
:10055600B985119709F409C0531710F000FF01C0BF
:1005660013C020E207FF0BC020E3006102FF07C0B3
:100576000B7F4A930E947703503009F051500E9436
:100586006A03503009F051503150A885B985129749
:1005960008F0B5CF00FF08C0503031F05150E0E20E
:1005A600EA930E947703F8CF10E0E0CEAC85BD85D4
:1005B6000E94D8030E94EC0364960895FF92F82ED9
:1005C60026970E94E7030E948F03309719F4EFEFF6
:1005D600FFEF23C0DE0116960E94A0038D010E9444
:1005E6008F03EE83FF83E0E0E887E987DE011A9652
:1005F6000E94A0030E94D803FA93EA931A930A93DF
:10060600EDE6F1E0FA93EA93DE011A96A3DE9F0186
:10061600AE81BF81E0E0EC93F9010E94EE032A96D9
:10062600FF900895BA93AA93A991B991EE27FF274F
:100636006D91662311F03196FBCF0895BA93AA9374
:10064600AA27BB27E991F9910590002011F0119690
:10065600FBCFFD0108952497D201E0E1F0E00E946E
:10066600BB03EA83FB83F201AFE0B0E00E94C00364
:10067600E883F983E0E6F2E0FA93EA93E8E8F0E04B
:10068600FA93EA93F201A885B985AE0FBF1FEC91E4
:10069600FF27662777270E94E00384E00E94E10295
:1006A6002896E881EA93AB810E940101A0E6B2E0B8
:1006B6000C942F010E94F500A3E0B0E00C94960381
:1006C600A0E30E94E10081E28A95F1F708952A935A
:1006D600AD85BE85EF85F88909950895E889F9897C
:1006E6003497E88BF98B0895AD85BE85EF85F8893B
:1006F60009950895A889B98914960E94D803EE83AE
:10070600FF83AE81BF810895A889B98914960E9496
:10071600D803EA87FB870895DE011C960E94A00392
:100726000E94D8030895109639F0A8958AEF90E0B4
:100736000197F1F71197C9F708950024AF0DB01D81
:100746000895F195E195F04008950024112490E173
:10075600AA0FBB1F001C111C0E1A1F0A18F40E0E3E
:100766001F1E01C0A1609A9599F7FD01D001089559
:100776000ED0EBDF0EF4E5DF0895E894F7FF02C034
:10078600E0DF6894EA23FB230EF4DBDF0895E894A8
:10079600F7FF02C0D6DF6894B7FF06C0A095B095F4
:1007A600119600F8039400FA0895ED91FC911197C3
:1007B60008950590F491E02D08957A936A93FA933B
:1007C600EA9308955A934A933A932A931A930A936B
:1007D60008955D814C813B812A81198108810895A4
:00000001FF
