:0E0000000C9452000C94B6000C9400000C946A
:10000E0000000C9400000C9400000C9400000C9462
:10001E0000000C9400000C9400000C9400000C9452
:10002E0000000C9400000C9400000C9400000C9442
:10003E0000000C9400000C9400000C9400000C9432
:10004E0000000C9400001027E80364000A00010071
:10005E0000100001100001000000FEFDFBF7373814
:10006E00392F3435362A3132332D43303D2B5374EC
:10007E006172740080C00100050066000400660213
:10008E00680010006A026C00060060027C0002002C
:10009E007A0282000000F894EE27ECBBF1E0FBBF81
:1000AE00EBBFE5BF8DE0A2E0BB27ED938A95E9F7A4
:1000BE0080E098E0A0E6ED930197E9F7E4E8F0E040
:1000CE0085919591009761F0A591B5910590159048
:1000DE00BF01F00105900D920197E1F7FB01F0CF02
:1000EE00EFE5EDBFE8E0EEBFC0E6D2E00C94DE0037
:1000FE001A930A9383E08A95F1F710E0143060F5B5
:10010E000FEFE12FF0E0EA59FD4FE081E8BB83E00D
:10011E008A95F1F7B49906C0E4E0E19FF001E65943
:10012E00FD4F5080B59906C0E4E0E19FF001E5591E
:10013E00FD4F5080B69906C0E4E0E19FF001E4590E
:10014E00FD4F5080B79906C0E4E0E19FF001E359FE
:10015E00FD4F50801F5FD2CF0991199108950A92D9
:10016E001A92FA926A937A938A939A93AA93BA936B
:10017E00EA93FA93EFB7EA93F894BADF552021F099
:10018E00A52D0E94B1015524EFE0E7BBE0EFE8BBDF
:10019E007894E991EFBFF991E991B991A99199916B
:1001AE00899179916991F990199009901895E0E0EB
:1001BE00EABBEBBBE7BBE8BBE4BBE5BBE1BBE2BB29
:1001CE00E3BFE2BFECBFEFBDEEBDEDBDECBDE7BDE5
:1001DE00E6BDEBBDEABDE9BDE8BDE2BDE5BDE4BDF2
:1001EE00E3BDE9BFE2E0E5BFE0E0E4BFEBB9E8E084
:1001FE00EAB9E6EAE0BDE0E0E0BDECE0E9B9E0E84E
:10020E00E8B9E0E0E0BFE6B9EDB9E6BFA0E176D02F
:10021E0043D0A0E6B2E061D0A8EEB3E00E94C501E3
:10022E003BD07894EBB7E064EBBFE5B7E260E5BF97
:10023E00EFE0E7BBE0EFE8BBFFCFFFCFAA93EBB356
:10024E00EF70AE2FE881E07FEA2BEBBB82E08A9560
:10025E00F1F7DA9A82E08A95F1F7DA9882E08A95D8
:10026E00F1F70C94B601AA93A881E8DFE881E29534
:10027E00E883A881E3DF81E18A95F1F770C0AA9344
:10028E00E881F0E0E658FD4FE081A981AE0FEBDF8B
:10029E004980788022960895A2E00E94B801ACE0D1
:1002AE00E2DFA1E00E94B801E0E07E2E4E2E08951E
:1002BE00AA93A881AA3011F0461448F0E0E0EA9320
:1002CE007394A72DDCDFA881AA3009F448C04394AB
:1002DE00D89AA881C8DFD89842C0BA93AA931A9325
:1002EE00A981BA81ED91A983BA831E2FE03019F04E
:1002FE00A12FDEDFF5CF188123960895AA93EAB3D6
:10030E00E06FEABBD29AD09AD19ADA98D898D99857
:10031E006880E881E058E0937C02E881E054E09345
:10032E007D02A4E1B0E00E94C5010E94BE010E94C0
:10033E00BE010E94BE01A0E281DF81E28A95F1F743
:10034E00A8E291DFA4E08FDFA5E88DDFA6E08BDFCA
:10035E00A3DF05C0AA935D9BFECFE881ECB9219681
:10036E0008950E943A01A3E0B0E00C94C501A0E309
:10037E000E94250181E28A95F1F70895109639F0D1
:10038E00A8958AEF90E00197F1F71197C9F70895B4
:00000001FF
