:100000000C942A000C9445000C9400000C94000001
:100010000C9400000C9400000C9400000C94000060
:100020000C9400000C9400000C9400000C94000050
:100030000C9400000C9400000C9400000C94000040
:100040000C9400000C9400000C9400000C94000030
:100050000C940000F894EE27ECBBF1E0FBBFEBBF83
:10006000E5BF8DE0A2E0BB27ED938A95E9F780E03C
:1000700098E0A0E6ED930197E9F7EFE5EDBFE8E042
:10008000EEBFC0E6D2E00C946C000A921A92FA928B
:100090006A937A938A939A93AA93BA93EA93FA9378
:1000A000EFB7EA93F894C09AA8EEB3E00E94760006
:1000B000C098A8EEB3E00E9476007894E991EFBF73
:1000C000F991E991B991A991999189917991699160
:1000D000F9901990099018957894B89AEBB7E06464
:1000E000EBBFE5B7E260E5BFFFCFFFCF109639F079
:1000F000A8958AEF90E00197F1F71197C9F7089555
:00000001FF
