:0C0000000C942F000C9400000C940000E5
:10000C000C9400000C9400000C9400000C94000064
:10001C000C9400000C9400000C9400000C94000054
:10002C000C9400000C9400000C9400000C94000044
:10003C000C9400000C9400000C9400000C94000034
:10004C000C9400000C94000000000100050054000A
:10005C000000F894EE27ECBBF1E0FBBFEBBFE5BF73
:10006C008DE0A2E0BB27ED938A95E9F780E098E05C
:10007C00A0E6ED930197E9F7E6E5F0E0859195911F
:10008C00009761F0A591B59105901590BF01F00115
:10009C0005900D920197E1F7FB01F0CFEFE5EDBF75
:1000AC00E8E0EEBFC0E6D2E00C94A900AA931A9344
:1000BC00E981F0E0309719F41EE7E12F41C0E130FF
:1000CC00A0E0FA0719F41CE0E12F3AC0E230A0E0FE
:1000DC00FA0719F416EBE12F33C0E330A0E0FA076E
:1000EC0019F41EE9E12F2CC0E430A0E0FA0719F452
:1000FC001CECE12F25C0E530A0E0FA0719F41AED4D
:10010C00E12F1EC0E630A0E0FA0719F41AEFE12F38
:10011C0017C0E730A0E0FA0719F41EE4E12F10C075
:10012C00E830A0E0FA0719F41EEFE12F09C0E9301E
:10013C00A0E0FA0719F41EEDE12F02C010E0E12F48
:10014C00188122960895EFEFE7BBE0E0E8BBA52D00
:10015C00ADDFE8BBA8EEB3E00E94BC00E9E0E5151A
:10016C0011F4552401C05394F2CFFFCF109639F0FF
:10017C00A8958AEF90E00197F1F71197C9F70895C8
:00000001FF
