:0A0000000C9449000C9400000C94CD
:10000A0000000C9400000C9400000C9400000C9466
:10001A0000000C9400000C9400000C9400000C9456
:10002A0000000C9400000C9400000C9400000C9446
:10003A0000000C9400000C9400000C9400000C9436
:10004A0000000C9400000C9400001027E8036400E0
:10005A000A000100001000011000010000004E6FAC
:10006A00204461746100436F756E74203D202564DD
:10007A00000080C0010004006600080060026800F9
:10008A00020078027C000000F894EE27ECBBF1E055
:10009A00FBBFEBBFE5BF8DE0A2E0BB27ED938A95DE
:1000AA00E9F780E098E0A0E6ED930197E9F7EEE73B
:1000BA00F0E085919591009761F0A591B591059031
:1000CA001590BF01F00105900D920197E1F7FB0130
:1000DA00F0CFEFE5EDBFE8E0EEBFC0E6D2E00C946A
:1000EA007600E0E0EBB9E0E1EAB9E6EAE0BDE0E09B
:1000FA00E0BDECE0E9B9A0E18BD058D0A0E6B2E0CF
:10010A0076D00E943A015E2EE3E4E51519F44ED04A
:10011A0044241DC04BD0A52D55D0E0E0EA93A1E0C0
:10012A0038D04394E8E6F2E0FA93EA93E0E7F0E0A5
:10013A00FA93EA93E42DFF27662777270E94520352
:10014A0084E00E94B2022896A8E6B2E050D0D9CF45
:10015A00FFCFAA93EBB3EF70AE2FE881E07FEA2BD3
:10016A00EBBB82E08A95F1F7DA9A82E08A95F1F799
:10017A00DA9882E08A95F1F776C0AA93A881E9DF36
:10018A00E881E295E883A881E4DF81E18A95F1F7C5
:10019A006AC0AA93E881F0E0E858FD4FE081A9819E
:1001AA00AE0FEBDF7980688022960895A2E00E9464
:1001BA00FF02ACE0E2DFA1E00E94FF02E0E06E2E67
:1001CA007E2E0895AA93A881AA3011F0791448F0D6
:1001DA00E0E0EA936394A62DDCDFA881AA3009F453
:1001EA0042C07394D89AA881C8DFD8983CC0BA9301
:1001FA00AA931A93A981BA81ED91A983BA831E2F72
:10020A00E03019F0A12FDEDFF5CF1881239608958B
:10021A00AA93EAB3E06FEABBD29AD09AD19ADA9853
:10022A00D898D9989880E881E058E0937A02E881D2
:10023A00E054E0937B02A4E1B0E00E9438030E94FC
:10024A0005030E9405030E940503A0E282DF81E202
:10025A008A95F1F7A8E291DFA4E08FDFA5E88DDFA8
:10026A00A6E08BDFA3DF219608955F9BFECFECB15A
:10027A000895BA93AA931A930A93AA81BB811296F4
:10028A000E944A03309759F1AA81BB8114960E94B1
:10029A004A038F01309761F00230E0E01E0798F0C0
:1002AA00F80131978F01AA81BB811496ED93FC93D3
:1002BA00AA81BB811296ED91FD913196FE93EE9340
:1002CA003197AC81A083AA81BB810E944A03FF2394
:1002DA002AF0ED91FD913196FE93EE9306C0AA8124
:1002EA00BB81EFEFFFEFED93FC931981088125960F
:1002FA000895BA93AA9326970E94570310E0AC85F3
:10030A00BD85E0E0F0E0ED93FC93EA89FB89319644
:10031A00EA8BFB8B3197E4912E2FE03009F415C15B
:10032A00E12FE03039F4253211F411E002C00E94C5
:10033A000C030AC1E130A9F4253219F40E940C0316
:10034A0002C112E040E000E02D3211F401E0FCC0ED
:10035A002B3211F44BE2F8C0203211F440E2F4C01F
:10036A0002C0E23039F450E013E0203311F400689F
:10037A00EBC003C0E33009F0E7C0203310F02A33A2
:10038A0008F007C0AAE05A9F502DE22FE0535E0FF3
:10039A00DBC0E22FE33649F40E941303E889F989A6
:1003AA00A481AA930E941903CEC0E33741F40E94A4
:1003BA0013030E941F030E94E6021E2F0AC0E037A1
:1003CA0061F40E9413030E941F030E94F2021E2F6F
:1003DA00086002600F7730E034C0E43611F0E93685
:1003EA0011F4046002C0E53731F4E4E5F0E0EE838D
:1003FA00FF8315E00CC0E83511F4086003C0E83744
:10040A0009F0A1C0EEE5F0E0EE83FF8314E002FFFD
:10041A0014C00E9413030E942903AB85AA233AF44D
:10042A00EA85FB850E944603EA87FB874DE2403056
:10043A0011F01F5F01C00B7F04C00E9413030E94CA
:10044A00290300FD11C0151778F407FF08C002FF41
:10045A0004C00B7F242F115001C020E301C020E209
:10046A000E940C035150EFCF312F01FF17C03030DB
:10047A00A1F003FF06C0EE81FF812591EE83FF8381
:10048A0005C0AE81BF812D91AE83BF830E940C034C
:10049A00503009F051503150EACF4BC020E3EE8181
:1004AA00FF810E944E03E887F987EE81FF81329629
:1004BA00EE83FF83E885F985AA85BB85AE17BF075A
:1004CA0050F02F5FA885B985EA85FB85EA1BFB0BEF
:1004DA00EA87FB87EFCF2A3328F003FF02C0295FA0
:1004EA0001C0295D04FD1AC0213320F4A885B9850D
:1004FA00119709F409C0531710F000FF01C013C087
:10050A0020E207FF0BC020E3006102FF07C00B7F58
:10051A004A930E941903503009F051500E940C036B
:10052A00503009F051503150A885B985129708F01A
:10053A00B5CF00FF08C0503031F05150E0E2EA93E5
:10054A000E941903F8CF10E0E0CEAC85BD850E9469
:10055A004A030E945E0364960895FF92F82E269736
:10056A000E9459030E943103309719F4EFEFFFEF0D
:10057A0023C0DE0116960E9442038D010E943103B8
:10058A00EE83FF83E0E0E887E987DE011A960E949E
:10059A0042030E944A03FA93EA931A930A93EEE3F8
:1005AA00F1E0FA93EA93DE011A96A3DE9F01AE8187
:1005BA00BF81E0E0EC93F9010E9460032A96FF9064
:1005CA000895BA93AA93A991B991EE27FF276D913D
:1005DA00662311F03196FBCF0895BA93AA93AA27FE
:1005EA00BB27E991F9910590002011F01196FBCFF4
:1005FA00FD0108950E94C200A3E0B0E00C94380304
:10060A00A0E30E94AE0081E28A95F1F708952A9349
:10061A00AD85BE85EF85F88909950895E889F98938
:10062A003497E88BF98B0895AD85BE85EF85F889F7
:10063A0009950895A889B98914960E944A03EE83F8
:10064A00FF83AE81BF810895A889B98914960E9453
:10065A004A03EA87FB870895DE011C960E9442033B
:10066A000E944A030895109639F0A8958AEF90E0FF
:10067A000197F1F71197C9F708950024AF0DB01D3E
:10068A000895F195E195F0400895ED91FC91119747
:10069A0008950590F491E02D08957A936A93FA9358
:1006AA00EA9308955A934A933A932A931A930A9388
:1006BA0008955D814C813B812A81198108810895C1
:00000001FF
