:060000000C9445000C9475
:1000060000000C9400000C9400000C9400000C946A
:1000160000000C9400000C9400000C9400000C945A
:1000260000000C9400000C9400000C9400000C944A
:1000360000000C9400000C9400000C9400000C943A
:1000460000000C9400000C9400000C940000FEFDCF
:10005600FBF73738392F3435362A3132332D4330D2
:10006600232B53746172740080C00400660254002E
:1000760010006A02580006006002680002007A0258
:100086006E000000F894EE27ECBBF1E0FBBFEBBF7F
:10009600E5BF8DE0A2E0BB27ED938A95E9F780E006
:1000A60098E0A0E6ED930197E9F7E0E7F0E08591A7
:1000B6009591009761F0A591B59105901590BF01B6
:1000C600F00105900D920197E1F7FB01F0CFEFE506
:1000D600EDBFE8E0EEBFC0E6D2E00C94A7000E94B8
:1000E6005901EFE0E7BBEFEFE8BB10E0143038F55D
:1000F6000FEFE12FF0E0EA59FD4FE081E8BB83E026
:100106008A95F1F7B49B00E0B59B01E0B69B02E04F
:10011600B79B03E00F3F89F0E4E0E19FF001DF01C8
:10012600E02FF0E0EA0FFB1FE659FD4F3081A8EE05
:10013600B3E00E944F01E32F03C01F5FD7CFD5CF97
:100146000E945E0124960895A0E171D040D0A0E6F9
:10015600B2E05CD0A8EEB3E00E944F0138D0BFDF1A
:100166005E2EE3E4E51511F432D002C0A52D39D098
:10017600F6CFFFCFAA93EBB3EF70AE2FE881E07F07
:10018600EA2BEBBB82E08A95F1F7DA9A82E08A9550
:10019600F1F7DA9882E08A95F1F771C0AA93A881FF
:1001A600E9DFE881E295E883A881E4DF81E18A95C9
:1001B600F1F765C0AA93E881F0E0E658FD4FE081CB
:1001C600A981AE0FEBDF4980788022960895A2E0E0
:1001D60058D0ACE0E3DFA1E054D0E0E07E2E4E2E16
:1001E6000895AA93A881AA3011F0461448F0E0E0D9
:1001F600EA937394A72DDEDFA881AA3009F43FC0E5
:100206004394D89AA881CADFD89839C0BA93AA93DA
:100216001A93A981BA81ED91A983BA831E2FE03082
:1002260019F0A12FDEDFF5CF188123960895AA9342
:10023600EAB3E06FEABBD29AD09AD19ADA98D89804
:10024600D9986880E881E058E0937C02E881E05420
:10025600E0937D02A4E1B0E00E944F0117D016D0D2
:1002660015D0A0E287DF81E28A95F1F7A8E296DF52
:10027600A4E094DFA5E892DFA6E090DFA8DF219650
:1002860008958CDFA3E0B0E00C944F01A0E372DF89
:1002960081E28A95F1F70895109639F0A8958AEFCC
:1002A60090E00197F1F71197C9F708953A932A93C9
:1002B6001A930A9308953B812A811981088108952A
:00000001FF
