:0C0000000C945C000C9400000C940000B8
:10000C000C9400000C9400000C9400000C94000064
:10001C000C9400000C9400000C9400000C94000054
:10002C000C9400000C9400000C9400000C94000044
:10003C000C9400000C9400000C9400000C94000034
:10004C000C9400000C9400001027E80364000A00D4
:10005C000100001000011000010000000000000071
:10006C000000FEFDFBF73132332F3435362A37389A
:10007C00392D43303D2B5374617274002564004E4E
:10008C00616E000080C008000400660004006A0273
:10009C006E001000880272000600600282000400EC
:1000AC0066028B000200980290000000F894EE2784
:1000BC00ECBBF1E0FBBFEBBFE5BF8DE0A2E0BB27E3
:1000CC00ED938A95E9F780E098E0A0E6ED9301972F
:1000DC00E9F7E2E9F0E085919591009761F0A5913F
:1000EC00B59105901590BF01F00105900D92019707
:1000FC00E1F7FB01F0CFEFE5EDBFE8E0EEBFC0E6C6
:10010C00D2E00C94C6000E94CA04EFE0E7BBEFEF0C
:10011C00E8BB10E0143078F50FEFE12FF0E0E65972
:10012C00FD4FE081E8BB83E08A95F1F7B49B00E0DA
:10013C00B59B01E0B69B02E0B79B03E00F3FC9F013
:10014C00E4E0E19FF001DF01E02FF0E0EA0FFB1F9C
:10015C00E857FD4F3081B49BFECFB59BFECFB69BCD
:10016C00FECFB79BFECFA2E3B0E00E946C04E32F5E
:10017C0003C01F5FCFCFCDCF0E94D104249608952A
:10018C00A0E137D1FED0A0E6B2E022D1A8EEB3E0D8
:10019C000E946C04F6D0B7DF5E2EE42DF0E03097B1
:1001AC0059F5E3E4E51519F40E94EE0324C0A52DDE
:1001BC00EBE20E9483040E2EEDE20E94F803EFE2C4
:1001CC000E94F803EAE20E948304E02959F0752C9E
:1001DC00D8D00E94FD030E940104A0E2DFD0E1E030
:1001EC004E2E09C0F5010E9407045D01CAD00E9481
:1001FC0011040E94FD0394C0E130A0E0FA0709F05D
:10020C008FC0E3E4E51521F40E94EE03442488C07A
:10021C00A52DE1E30E9483040E2EE2E30E94F80375
:10022C00E3E30E94F803E4E30E94F803E5E30E9491
:10023C00F803E6E30E94F803E7E30E94F803E8E31F
:10024C000E94F803E9E30E94F803E0E30E948304B0
:10025C00E029D9F0F4010E9407044D01E0E0EA9393
:10026C00A0E080D00E94FD03A0E298D0A72D96D0EC
:10027C00A0E294D0E3E7F2E00E942304F4010E9490
:10028C002A04A3E7B2E0A4D04BC0EDE3E51509F0D6
:10029C0047C00E940104E0E0EA93A1E063D0EBE2E6
:1002AC00E71521F4F401EA0DFB1D29C0EDE2E71579
:1002BC0021F4F501E819F90922C0EFE2E715C1F4C0
:1002CC00082C092829F4CC24DD24A6E6B2E00EC0C3
:1002DC00F401D5010E94A8046F01E8E7F2E00E9446
:1002EC002304F6010E942A04A8E7B2E071D012C0E0
:1002FC00EAE2E71579F4F401D5010E9490046F014C
:10030C00E8E7F2E00E942304F6010E942A04A8E721
:10031C00B2E05ED044248824992456010E94110432
:10032C003ACFFFCFAA93EBB3EF70AE2FE881E07F0B
:10033C00EA2BEBBB82E08A95F1F7DA9A82E08A9598
:10034C00F1F7DA9882E08A95F1F77FC0AA93A88139
:10035C00E9DFE881E295E883A881E4DF81E18A9511
:10036C00F1F773C0AA93E881F0E0E856FD4FE08105
:10037C00A981AE0FEBDF6980E881E0939C022296A5
:10038C000895A2E00E943304ACE0E0DFA1E00E94FB
:10039C003304E0E0E0939C026E2E0895AA93A881AA
:1003AC00AA3021F0E0919D026E1660F0E0E0EA9335
:1003BC00A0919C02AF5FA0939C02D4DFA881AA30CD
:1003CC0009F443C06394D89AA881C0DFD8983DC083
:1003DC00BA93AA931A93A981BA81ED91A983BA838E
:1003EC001E2FE03019F0A12FD9DFF5CF18812396FD
:1003FC000895AA93EAB3E06FEABBD29AD09AD19A45
:10040C00DA98D898D998E881E0939D02E058E09367
:10041C009A02E881E054E0939B02A4E1B0E00E94D0
:10042C006C040E9439040E9439040E943904A0E231
:10043C0079DF81E28A95F1F7A8E288DFA4E086DF14
:10044C00A5E884DFA6E082DF9CDF21960895BA93AD
:10045C00AA931A930A93AA81BB8112960E94BB0499
:10046C00309759F1AA81BB8114960E94BB048F016D
:10047C00309761F00230E0E01E0798F0F8013197F8
:10048C008F01AA81BB811496ED93FC93AA81BB8149
:10049C001296ED91FD913196FE93EE933197AC81CE
:1004AC00A083AA81BB810E94BB04FF232AF0ED919B
:1004BC00FD913196FE93EE9306C0AA81BB81EFEFBE
:1004CC00FFEFED93FC931981088125960895BA935B
:1004DC00AA9326970E94C80410E0AC85BD85E0E085
:1004EC00F0E0ED93FC93EA89FB893196EA8BFB8B68
:1004FC003197E4912E2FE03009F415C1E12FE03053
:10050C0039F4253211F411E002C00E9440040AC1F2
:10051C00E130A9F4253219F40E94400402C112E022
:10052C0040E000E02D3211F401E0FCC02B3211F45C
:10053C004BE2F8C0203211F440E2F4C002C0E230C9
:10054C0039F450E013E0203311F40068EBC003C021
:10055C00E33009F0E7C0203310F02A3308F007C06D
:10056C00AAE05A9F502DE22FE0535E0FDBC0E22F22
:10057C00E33649F40E944704E889F989A481AA93D7
:10058C000E944D04CEC0E33741F40E9447040E9400
:10059C0053040E94D5031E2F0AC0E03761F40E9459
:1005AC0047040E9453040E94E1031E2F086002605E
:1005BC000F7730E034C0E43611F0E93611F4046002
:1005CC0002C0E53731F4E4E5F0E0EE83FF8315E09B
:1005DC000CC0E83511F4086003C0E83709F0A1C07D
:1005EC00EEE5F0E0EE83FF8314E002FF14C00E94FE
:1005FC0047040E945D04AB85AA233AF4EA85FB8587
:10060C000E947A04EA87FB874DE2403011F01F5FAD
:10061C0001C00B7F04C00E9447040E945D0400FDD2
:10062C0011C0151778F407FF08C002FF04C00B7F38
:10063C00242F115001C020E301C020E20E9440048D
:10064C005150EFCF312F01FF17C03030A1F003FF15
:10065C0006C0EE81FF812591EE83FF8305C0AE813C
:10066C00BF812D91AE83BF830E944004503009F0AE
:10067C0051503150EACF4BC020E3EE81FF810E94F4
:10068C00BF04E887F987EE81FF813296EE83FF8302
:10069C00E885F985AA85BB85AE17BF0750F02F5F9B
:1006AC00A885B985EA85FB85EA1BFB0BEA87FB87E6
:1006BC00EFCF2A3328F003FF02C0295F01C0295D68
:1006CC0004FD1AC0213320F4A885B985119709F4CB
:1006DC0009C0531710F000FF01C013C020E207FF40
:1006EC000BC020E3006102FF07C00B7F4A930E94FE
:1006FC004D04503009F051500E944004503009F024
:10070C0051503150A885B985129708F0B5CF00FF2C
:10071C0008C0503031F05150E0E2EA930E944D0491
:10072C00F8CF10E0E0CEAC85BD850E94BB040E94E2
:10073C00CF0464960895FF92F82E26970E94CA045F
:10074C000E946504309719F4EFEFFFEF23C0DE0130
:10075C0016960E9476048D010E946504EE83FF8339
:10076C00E0E0E887E987DE011A960E9476040E9491
:10077C00BB04FA93EA931A930A93EDE2F2E0FA932C
:10078C00EA93DE011A96A3DE9F01AE81BF81E0E001
:10079C00EC93F9010E94D1042A96FF900895BA9324
:1007AC00AA93A991B991EE27FF276D91662311F0B9
:1007BC003196FBCF0895BA93AA93AA27BB27E99148
:1007CC00F9910590002011F01196FBCFFD010895D1
:1007DC0088249924AA24BB2477240E94C701A0E36F
:1007EC000C94D4010E9483040E2AA52D0895AEE624
:1007FC00B2E00C94EE01A0E20E94D401A52D0C9461
:10080C00D401AAE0B0E00E949004DF01EE27A50D10
:10081C00BE1FD0970895EEE6F2E0FA93EA93E8E86B
:10082C00F0E0FA93EA93F5010E947E040E94C3045F
:10083C0084E00E94A10328960895FA93EA93E8E8CD
:10084C00F0E0FA93EA9308950E947E040E94C30498
:10085C0084E00E94A103289608950E94AC01A3E0B5
:10086C00B0E00C946C04A0E30E94980181E28A959C
:10087C00F1F708952A93AD85BE85EF85F889099522
:10088C000895E889F9893497E88BF98B0895AD853B
:10089C00BE85EF85F88909950895A889B9891496BC
:1008AC000E94BB04EE83FF83AE81BF810895A889AB
:1008BC00B98914960E94BB04EA87FB870895DE0170
:1008CC001C960E9476040E94BB040895109639F081
:1008DC00A8958AEF90E00197F1F71197C9F7089561
:1008EC000024AF0DB01D0895F195E195F0400895E9
:1008FC006F2F660F660B762F0895EA17E1E009F06B
:10090C00EE270895FA9FF02DEB9FF00DEA9FE02D56
:10091C00F10D08951CD0F6DF0EF4E6DF08950024E7
:10092C00112490E1AA0FBB1F001C111C0E1A1F0AE8
:10093C0018F40E0E1F1E01C0A1609A9599F7FD01C7
:10094C00D001089504D0EBDF0EF4CEDF0895E894C7
:10095C00F7FF02C0C9DF6894B7FF06C0A095B09539
:10096C00119600F8039400FA0895ED91FC911197FB
:10097C0008950590F491E02D08957A936A93FA9373
:10098C00EA9308955A934A933A932A931A930A93A3
:10099C0008955D814C813B812A81198108810895DC
:00000001FF
