:080000000C9444000C94000074
:100008000C9400000C9400000C9400000C94000068
:100018000C9400000C9400000C9400000C94000058
:100028000C9400000C9400000C9400000C94000048
:100038000C9400000C9400000C9400000C94000038
:100048000C9400000C9400000C9400001027E803A6
:1000580064000A0001000010000110000100FEFD0C
:10006800FBF73738392F3435362A3132332D4330C0
:10007800232B040060026600100064026A0000007E
:10008800F894EE27ECBBF1E0FBBFEBBFE5BF8DE0DA
:10009800A2E0BB27ED938A95E9F780E098E0A0E617
:1000A800ED930197E9F7EAE7F0E0859195910097DC
:1000B80061F0A591B59105901590BF01F0010590EB
:1000C8000D920197E1F7FB01F0CFEFE5EDBFE8E016
:1000D800EEBFC0E6D2E00C94AD00AA935D9BFECFC4
:1000E800E881ECB9219608950E94EA00EFE0E7BBA9
:1000F800EFEFE8BB10E0143038F50FEFE12FF0E038
:10010800E05AFD4FE081E8BB83E08A95F1F7B49BA4
:1001180000E0B59B01E0B69B02E0B79B03E00F3F10
:1001280089F0E4E0E19FF001DF01E02FF0E0EA0F61
:10013800FB1FEC59FD4F3081A8ECB0E00E94E000B5
:10014800E32F03C01F5FD7CFD5CF0E94EF002496BF
:100158000895E0E0EABBEBBBE7BBE8BBE4BBE5BB6B
:10016800E1BBE2BBE3BFE2BFECBFEFBDEEBDEDBD5F
:10017800ECBDE7BDE6BDEBBDEABDE9BDE8BDE2BD4E
:10018800E5BDE4BDE3BDE9BFE5BFE4BFEBB9E8E029
:10019800EAB9E6EAE0BDE0E0E0BDECE0E9B9E0E8B4
:1001A800E8B9E0E0E0BFE6B9EDB9E6BF9DDF5E2E55
:1001B800A52D93DFFBCFFFCF109639F0A8958AEFD6
:1001C80090E00197F1F71197C9F708953A932A93A8
:1001D8001A930A9308953B812A8119810881089509
:00000001FF
