:0A0000000C9450000C9400000C94C6
:10000A0000000C9400000C9400000C9400000C9466
:10001A0000000C9400000C9400000C9400000C9456
:10002A0000000C9400000C9400000C9400000C9446
:10003A0000000C9400000C9400000C9400000C9436
:10004A0000000C9400000C9400001027E8036400E0
:10005A000A000100001000011000010000004E6FAC
:10006A00204461746100496E707574203D2000431C
:10007A006F756E74203D2025640080C00100040065
:10008A006600080060026800090068027000020049
:10009A00810284000000F894EE27ECBBF1E0FBBF7C
:1000AA00EBBFE5BF8DE0A2E0BB27ED938A95E9F7A8
:1000BA0080E098E0A0E6ED930197E9F7E6E8F0E042
:1000CA0085919591009761F0A591B591059015904C
:1000DA00BF01F00105900D920197E1F7FB01F0CF06
:1000EA00EFE5EDBFE8E0EEBFC0E6D2E00C947D009C
:1000FA00E0E0EBB9E0E1EAB9E6EAE0BDE0E0E0BD64
:10010A00ECE0E9B9A0E18CD059D0A0E6B2E077D012
:10011A00A0EDB7E00E9440030E9442015E2E4ED03D
:10012A00A8E6B2E06CD0A52D55D0E0E0EA93A1E0B4
:10013A0038D04394E1E7F2E0FA93EA93E9E7F0E092
:10014A00FA93EA93E42DFF27662777270E945A033A
:10015A0084E00E94BA022896A1E7B2E050D0DCCF30
:10016A00FFCFAA93EBB3EF70AE2FE881E07FEA2BC3
:10017A00EBBB82E08A95F1F7DA9A82E08A95F1F789
:10018A00DA9882E08A95F1F776C0AA93A881E9DF26
:10019A00E881E295E883A881E4DF81E18A95F1F7B5
:1001AA006AC0AA93E881F0E0EF57FD4FE081A98188
:1001BA00AE0FEBDF7980688022960895A2E00E9454
:1001CA000703ACE0E2DFA1E00E940703E0E06E2E45
:1001DA007E2E0895AA93A881AA3011F0791448F0C6
:1001EA00E0E0EA936394A62DDCDFA881AA3009F443
:1001FA0042C07394D89AA881C8DFD8983CC0BA93F1
:10020A00AA931A93A981BA81ED91A983BA831E2F61
:10021A00E03019F0A12FDEDFF5CF1881239608957B
:10022A00AA93EAB3E06FEABBD29AD09AD19ADA9843
:10023A00D898D9989880E881E058E0938302E881B9
:10024A00E054E0938402A4E1B0E00E9440030E94DB
:10025A000D030E940D030E940D03A0E282DF81E2DA
:10026A008A95F1F7A8E291DFA4E08FDFA5E88DDF98
:10027A00A6E08BDFA3DF219608955F9BFECFECB14A
:10028A000895BA93AA931A930A93AA81BB811296E4
:10029A000E945203309759F1AA81BB8114960E9499
:1002AA0052038F01309761F00230E0E01E0798F0A8
:1002BA00F80131978F01AA81BB811496ED93FC93C3
:1002CA00AA81BB811296ED91FD913196FE93EE9330
:1002DA003197AC81A083AA81BB810E945203FF237C
:1002EA002AF0ED91FD913196FE93EE9306C0AA8114
:1002FA00BB81EFEFFFEFED93FC93198108812596FF
:10030A000895BA93AA9326970E945F0310E0AC85DA
:10031A00BD85E0E0F0E0ED93FC93EA89FB89319634
:10032A00EA8BFB8B3197E4912E2FE03009F415C14B
:10033A00E12FE03039F4253211F411E002C00E94B5
:10034A0014030AC1E130A9F4253219F40E941403F6
:10035A0002C112E040E000E02D3211F401E0FCC0DD
:10036A002B3211F44BE2F8C0203211F440E2F4C00F
:10037A0002C0E23039F450E013E0203311F400688F
:10038A00EBC003C0E33009F0E7C0203310F02A3392
:10039A0008F007C0AAE05A9F502DE22FE0535E0FE3
:1003AA00DBC0E22FE33649F40E941B03E889F9898E
:1003BA00A481AA930E942103CEC0E33741F40E948C
:1003CA001B030E9427030E94EE021E2F0AC0E03779
:1003DA0061F40E941B030E9427030E94FA021E2F47
:1003EA00086002600F7730E034C0E43611F0E93675
:1003FA0011F4046002C0E53731F4E4E5F0E0EE837D
:10040A00FF8315E00CC0E83511F4086003C0E83733
:10041A0009F0A1C0EEE5F0E0EE83FF8314E002FFED
:10042A0014C00E941B030E943103AB85AA233AF42D
:10043A00EA85FB850E944E03EA87FB874DE240303E
:10044A0011F01F5F01C00B7F04C00E941B030E94B2
:10045A00310300FD11C0151778F407FF08C002FF29
:10046A0004C00B7F242F115001C020E301C020E2F9
:10047A000E9414035150EFCF312F01FF17C03030C3
:10048A00A1F003FF06C0EE81FF812591EE83FF8371
:10049A0005C0AE81BF812D91AE83BF830E94140334
:1004AA00503009F051503150EACF4BC020E3EE8171
:1004BA00FF810E945603E887F987EE81FF81329611
:1004CA00EE83FF83E885F985AA85BB85AE17BF074A
:1004DA0050F02F5FA885B985EA85FB85EA1BFB0BDF
:1004EA00EA87FB87EFCF2A3328F003FF02C0295F90
:1004FA0001C0295D04FD1AC0213320F4A885B985FD
:10050A00119709F409C0531710F000FF01C013C076
:10051A0020E207FF0BC020E3006102FF07C00B7F48
:10052A004A930E942103503009F051500E9414034B
:10053A00503009F051503150A885B985129708F00A
:10054A00B5CF00FF08C0503031F05150E0E2EA93D5
:10055A000E942103F8CF10E0E0CEAC85BD850E9451
:10056A0052030E94660364960895FF92F82E269716
:10057A000E9461030E943903309719F4EFEFFFEFED
:10058A0023C0DE0116960E944A038D010E94390398
:10059A00EE83FF83E0E0E887E987DE011A960E948E
:1005AA004A030E945203FA93EA931A930A93E6E4DF
:1005BA00F1E0FA93EA93DE011A96A3DE9F01AE8177
:1005CA00BF81E0E0EC93F9010E9468032A96FF904C
:1005DA000895BA93AA93A991B991EE27FF276D912D
:1005EA00662311F03196FBCF0895BA93AA93AA27EE
:1005FA00BB27E991F9910590002011F01196FBCFE4
:10060A00FD0108950E94CA00A3E0B0E00C944003E3
:10061A00A0E30E94B60081E28A95F1F708952A9331
:10062A00AD85BE85EF85F88909950895E889F98928
:10063A003497E88BF98B0895AD85BE85EF85F889E7
:10064A0009950895A889B98914960E945203EE83E0
:10065A00FF83AE81BF810895A889B98914960E9443
:10066A005203EA87FB870895DE011C960E944A031B
:10067A000E9452030895109639F0A8958AEF90E0E7
:10068A000197F1F71197C9F708950024AF0DB01D2E
:10069A000895F195E195F0400895ED91FC91119737
:1006AA0008950590F491E02D08957A936A93FA9348
:1006BA00EA9308955A934A933A932A931A930A9378
:1006CA0008955D814C813B812A81198108810895B1
:00000001FF
