:0A0000000C9449000C94AD000C9420
:10000A0000000C9400000C9400000C9400000C9466
:10001A0000000C9400000C9400000C9400000C9456
:10002A0000000C9400000C9400000C9400000C9446
:10003A0000000C9400000C9400000C9400000C9436
:10004A0000000C9400000C9400000000FEFDFBF779
:10005A003738392F3435362A3132332D43303D2B58
:10006A0053746172740080C00100050054000400DA
:10007A006602560010006A025A00060060026A0010
:10008A0002007A0270000000F894EE27ECBBF1E05F
:10009A00FBBFEBBFE5BF8DE0A2E0BB27ED938A95DE
:1000AA00E9F780E098E0A0E6ED930197E9F7E2E747
:1000BA00F0E085919591009761F0A591B591059031
:1000CA001590BF01F00105900D920197E1F7FB0130
:1000DA00F0CFEFE5EDBFE8E0EEBFC0E6D2E00C946A
:1000EA00D9001A930A9383E08A95F1F710E0143045
:1000FA0060F50FEFE12FF0E0EA59FD4FE081E8BB30
:10010A0083E08A95F1F7B49906C0E4E0E19FF00133
:10011A00E659FD4F5080B59906C0E4E0E19FF00131
:10012A00E559FD4F5080B69906C0E4E0E19FF00121
:10013A00E459FD4F5080B79906C0E4E0E19FF00111
:10014A00E359FD4F50801F5FD2CF0991199108954D
:10015A000A921A92FA926A937A938A939A93AA9330
:10016A00BA93EA93FA93EFB7EA93F894BADFEFE017
:10017A00E7BBE0EFE8BB552041F0E3E4E51511F4F5
:10018A0058D002C0A52D5FD055247894E991EFBFCD
:10019A00F991E991B991A991999189917991699185
:1001AA00F990199009901895A0E173D042D0A0E671
:1001BA00B2E05ED0A8EEB3E00E9483013AD0789410
:1001CA00EBB7E064EBBFE5B7E260E5BFEFE0E7BBA2
:1001DA00E0EFE8BBFFCFFFCFAA93EBB3EF70AE2FF0
:1001EA00E881E07FEA2BEBBB82E08A95F1F7DA9AA5
:1001FA0082E08A95F1F7DA9882E08A95F1F771C080
:10020A00AA93A881E9DFE881E295E883A881E4DF7F
:10021A0081E18A95F1F765C0AA93E881F0E0E65892
:10022A00FD4FE081A981AE0FEBDF498078802296ED
:10023A000895A2E058D0ACE0E3DFA1E054D0E0E0BA
:10024A007E2E4E2E0895AA93A881AA3011F0461444
:10025A0048F0E0E0EA937394A72DDEDFA881AA3084
:10026A0009F43FC04394D89AA881CADFD89839C004
:10027A00BA93AA931A93A981BA81ED91A983BA83F1
:10028A001E2FE03019F0A12FDEDFF5CF188123965B
:10029A000895AA93EAB3E06FEABBD29AD09AD19AA8
:1002AA00DA98D898D9986880E881E058E0937C0277
:1002BA00E881E054E0937D02A4E1B0E00E9483016A
:1002CA0017D016D015D0A0E287DF81E28A95F1F720
:1002DA00A8E296DFA4E094DFA5E892DFA6E090DF2B
:1002EA00A8DF219608958CDFA3E0B0E00C94830187
:1002FA00A0E372DF81E28A95F1F70895109639F04A
:10030A00A8958AEF90E00197F1F71197C9F7089538
:00000001FF
