:0C0000000C942A000C9400000C940000EA
:10000C000C9400000C9400000C9400000C94000064
:10001C000C9400000C9400000C9400000C94000054
:10002C000C9400000C9400000C9400000C94000044
:10003C000C9400000C9400000C9400000C94000034
:10004C000C9400000C940000F894EE27ECBBF1E04B
:10005C00FBBFEBBFE5BF8DE0A2E0BB27ED938A951C
:10006C00E9F780E098E0A0E6ED930197E9F7EFE57A
:10007C00EDBFE8E0EEBFC0E6D2E00C9445000AE02C
:10008C0010E0EBE6E3BFE0E0E2BFE0E8ECBFBB9AD8
:10009C000AE010E00A3FE0E01E0744F40CBFA2E3C4
:1000AC00B0E00E946C000F5F1F4FF4CF0AEF10E01E
:1000BC000A30E0E01E0744F00CBFA2E3B0E00E945F
:1000CC006C0001501040F4CFE3CFFFCF109639F005
:1000DC00A8958AEF90E00197F1F71197C9F7089569
:00000001FF
