:0C0000000C9447000C9400000C940000CD
:10000C000C9400000C9400000C9400000C94000064
:10001C000C9400000C9400000C9400000C94000054
:10002C000C9400000C9400000C9400000C94000044
:10003C000C9400000C9400000C9400000C94000034
:10004C000C9400000C9400001027E80364000A00D4
:10005C000100001000011000010053746172740063
:10006C00256400436F756E74696E670080C006006E
:10007C0060026600090066026F0002008F027800C1
:10008C000000F894EE27ECBBF1E0FBBFEBBFE5BF43
:10009C008DE0A2E0BB27ED938A95E9F780E098E02C
:1000AC00A0E6ED930197E9F7EAE7F0E085919591E9
:1000BC00009761F0A591B59105901590BF01F001E5
:1000CC0005900D920197E1F7FB01F0CFEFE5EDBF45
:1000DC00E8E0EEBFC0E6D2E00C947400A0E18CD056
:1000EC0059D0A0E6B2E077D0A8E8B3E10E9429038A
:1000FC0051D0EFE6F2E0FA93EA93ECE6F0E0FA93F3
:10010C00EA93E52DFF27662777270E94430384E0B7
:10011C000E94A3022896A6E6B2E05DD0E0E0EA9346
:10012C00A1E02BD0AFE6B2E056D05394A8EEB3E0EA
:10013C000E9429032FD0DDCFFFCFAA93EBB3EF7032
:10014C00AE2FE881E07FEA2BEBBB82E08A95F1F7DA
:10015C00DA9A82E08A95F1F7DA9882E08A95F1F7DB
:10016C0076C0AA93A881E9DFE881E295E883A881AB
:10017C00E4DF81E18A95F1F76AC0AA93E881F0E0A7
:10018C00E157FD4FE081A981AE0FEBDF498078800C
:10019C0022960895A2E00E94F002ACE0E2DFA1E01A
:1001AC000E94F002E0E07E2E4E2E0895AA93A881C4
:1001BC00AA3011F0461448F0E0E0EA937394A72DAE
:1001CC00DCDFA881AA3009F442C04394D89AA881F4
:1001DC00C8DFD8983CC0BA93AA931A93A981BA8164
:1001EC00ED91A983BA831E2FE03019F0A12FDEDF29
:1001FC00F5CF188123960895AA93EAB3E06FEABB72
:10020C00D29AD09AD19ADA98D898D9986880E881FD
:10021C00E058E0939102E881E054E0939202A4E16B
:10022C00B0E00E9429030E94F6020E94F6020E948E
:10023C00F602A0E282DF81E28A95F1F7A8E291DF73
:10024C00A4E08FDFA5E88DDFA6E08BDFA3DF21968E
:10025C000895BA93AA931A930A93AA81BB81129612
:10026C000E943B03309759F1AA81BB8114960E94DE
:10027C003B038F01309761F00230E0E01E0798F0ED
:10028C00F80131978F01AA81BB811496ED93FC93F1
:10029C00AA81BB811296ED91FD913196FE93EE935E
:1002AC003197AC81A083AA81BB810E943B03FF23C1
:1002BC002AF0ED91FD913196FE93EE9306C0AA8142
:1002CC00BB81EFEFFFEFED93FC931981088125962D
:1002DC000895BA93AA9326970E94480310E0AC8520
:1002EC00BD85E0E0F0E0ED93FC93EA89FB89319663
:1002FC00EA8BFB8B3197E4912E2FE03009F415C17A
:10030C00E12FE03039F4253211F411E002C00E94E3
:10031C00FD020AC1E130A9F4253219F40E94FD0254
:10032C0002C112E040E000E02D3211F401E0FCC00B
:10033C002B3211F44BE2F8C0203211F440E2F4C03D
:10034C0002C0E23039F450E013E0203311F40068BD
:10035C00EBC003C0E33009F0E7C0203310F02A33C0
:10036C0008F007C0AAE05A9F502DE22FE0535E0F11
:10037C00DBC0E22FE33649F40E940403E889F989D3
:10038C00A481AA930E940A03CEC0E33741F40E94D1
:10039C0004030E9410030E94D7021E2F0AC0E037EC
:1003AC0061F40E9404030E9410030E94E3021E2FBA
:1003BC00086002600F7730E034C0E43611F0E936A3
:1003CC0011F4046002C0E53731F4E4E5F0E0EE83AB
:1003DC00FF8315E00CC0E83511F4086003C0E83762
:1003EC0009F0A1C0EEE5F0E0EE83FF8314E002FF1C
:1003FC0014C00E9404030E941A03AB85AA233AF48A
:10040C00EA85FB850E943703EA87FB874DE2403083
:10041C0011F01F5F01C00B7F04C00E9404030E94F7
:10042C001A0300FD11C0151778F407FF08C002FF6E
:10043C0004C00B7F242F115001C020E301C020E227
:10044C000E94FD025150EFCF312F01FF17C0303009
:10045C00A1F003FF06C0EE81FF812591EE83FF839F
:10046C0005C0AE81BF812D91AE83BF830E94FD027A
:10047C00503009F051503150EACF4BC020E3EE819F
:10048C00FF810E943F03E887F987EE81FF81329656
:10049C00EE83FF83E885F985AA85BB85AE17BF0778
:1004AC0050F02F5FA885B985EA85FB85EA1BFB0B0D
:1004BC00EA87FB87EFCF2A3328F003FF02C0295FBE
:1004CC0001C0295D04FD1AC0213320F4A885B9852B
:1004DC00119709F409C0531710F000FF01C013C0A5
:1004EC0020E207FF0BC020E3006102FF07C00B7F77
:1004FC004A930E940A03503009F051500E94FD02A9
:10050C00503009F051503150A885B985129708F038
:10051C00B5CF00FF08C0503031F05150E0E2EA9303
:10052C000E940A03F8CF10E0E0CEAC85BD850E9496
:10053C003B030E944F0364960895FF92F82E269772
:10054C000E944A030E942203309719F4EFEFFFEF49
:10055C0023C0DE0116960E9433038D010E942203F4
:10056C00EE83FF83E0E0E887E987DE011A960E94BC
:10057C0033030E943B03FA93EA931A930A93EFE234
:10058C00F1E0FA93EA93DE011A96A3DE9F01AE81A5
:10059C00BF81E0E0EC93F9010E9451032A96FF9091
:1005AC000895BA93AA93A991B991EE27FF276D915B
:1005BC00662311F03196FBCF0895BA93AA93AA271C
:1005CC00BB27E991F9910590002011F01196FBCF12
:1005DC00FD0108950E94B700A3E0B0E00C9429033C
:1005EC00A0E30E94A30081E28A95F1F708952A9373
:1005FC00AD85BE85EF85F88909950895E889F98957
:10060C003497E88BF98B0895AD85BE85EF85F88915
:10061C0009950895A889B98914960E943B03EE8325
:10062C00FF83AE81BF810895A889B98914960E9471
:10063C003B03EA87FB870895DE011C960E94330377
:10064C000E943B030895109639F0A8958AEF90E02C
:10065C000197F1F71197C9F708950024AF0DB01D5C
:10066C000895F195E195F0400895ED91FC91119765
:10067C0008950590F491E02D08957A936A93FA9376
:10068C00EA9308955A934A933A932A931A930A93A6
:10069C0008955D814C813B812A81198108810895DF
:00000001FF
